:020000040000FA
:100000000C9458000C9480000C9480000C94800098
:100010000C9480000C9480000C9480000C94800060
:100020000C9480000C9480000C9480000C94800050
:100030000C9480000C9480000C9480000C94800040
:100040000C94D1030C9480000C9480000C948000DC
:100050000C9480000C9480000C9480000C94800020
:100060000C941B040C948000000000002500280064
:100070002B00040404040404040402020202020229
:10008000030303030303010204081020408001025C
:1000900004081020010204081020000000080002DB
:1000A00001000003040700000000000000003A0502
:1000B00011241FBECFEFD8E0DEBFCDBF11E0A0E01E
:1000C000B1E0ECE4FDE002C005900D92A033B10771
:1000D000D9F722E0A0E3B1E001C01D92AB30B20736
:1000E000E1F710E0C8E5D0E004C02197FE010E94CE
:1000F0009E06C735D107C9F70E945C050C94A4067B
:100100000C94000008950895AF92BF92CF92DF92B1
:10011000EF92FF920F931F93CF93DF936C017B01BC
:100120008B01040F151FEB015E01AE18BF08C0174D
:10013000D10759F06991D601ED91FC910190F081C0
:10014000E02DC6010995892B79F7C501DF91CF9183
:100150001F910F91FF90EF90DF90CF90BF90AF90E5
:10016000089590E0FC01E656FF4F2491FC01EA5708
:10017000FF4F3491FC01EE58FF4FE491EE23C9F09C
:10018000222339F0233001F1A8F4213019F1223073
:1001900029F1F0E0EE0FFF1FE859FF4FA591B49150
:1001A0008FB7F894EC91611126C030953E233C93B3
:1001B0008FBF08952730A9F02830C9F0243049F7BF
:1001C000809180008F7D03C0809180008F77809325
:1001D0008000DFCF84B58F7784BDDBCF84B58F7D82
:1001E000FBCF8091B0008F778093B000D2CF809109
:1001F000B0008F7DF9CF3E2BDACF3FB7F8948091D6
:10020000E7019091E801A091E901B091EA0126B5DA
:10021000A89B05C02F3F19F00196A11DB11D3FBF3E
:10022000BA2FA92F982F8827BC01CD01620F711D0D
:10023000811D911D42E0660F771F881F991F4A9507
:10024000D1F708958F929F92AF92BF92CF92DF9293
:10025000EF92FF924B015C010E94FD006B017C015B
:100260000E94FD006C197D098E099F09683E73404C
:1002700081059105A8F321E0821A9108A108B1082F
:1002800088EEC80E83E0D81EE11CF11C8114910495
:10029000A104B10429F7FF90EF90DF90CF90BF90B9
:1002A000AF909F908F90089520919801260F33274B
:1002B000331F21323105ECF42091BC01FC0190E0A8
:1002C00080E0243069F082E00895A09198012191A6
:1002D000AC0148585E4FA40FB52FB11D2C93019669
:1002E000861798F380919801680F6093980180E0D9
:1002F000089581E008951092BC0181E08093BE01D1
:100300001092BD0161E082E10E94B10061E083E1F1
:100310000E94B100E9EBF0E080818E7F80838081D4
:100320008D7F808388E48093B80085E48093BC004F
:100330000895CF93DF9391E0909377018823B9F0EC
:10034000C091B800D091BA008091BC008A7B8093A4
:10035000BC0060E082E10E94B10060E083E10E94A5
:10036000B1000E947B01D093BA00C093B800DF9126
:10037000CF9108950895E091F2018091F101E8177D
:1003800030F4F0E0EE5AFE4F808190E008958FEF58
:100390009FEF08959091F2018091F1012FEF3FEFCF
:1003A000981748F4E92FF0E0EE5AFE4F208130E034
:1003B0009F5F9093F201C90108958091F10190919E
:1003C000F201891B990B0895CF92DF92EF92FF9271
:1003D0000F931F93CF93DF937C01CB018A01209170
:1003E0005101222389F0EB016B01C40ED51ECC15FF
:1003F000DD0569F06991D701ED91FC910190F081E3
:10040000E02DC7010995F3CF642F0E945401C80164
:10041000DF91CF911F910F91FF90EF90DF90CF90E0
:100420000895CF93DF931F92CDB7DEB769832091F4
:1004300051012223F9F02091EF01203258F021E000
:1004400030E0FC013383228390E080E00F90DF9165
:10045000CF9108958091F001E82FF0E0EF5CFE4F1E
:10046000998190838F5F8093F0018093EF0181E009
:1004700090E0ECCF61E0CE0101960E945401F7CFED
:10048000CF92DF92EF92FF920F931F93CF93DF9360
:10049000FC01C48181E080935101C093300110922E
:1004A000F0011092EF0183EF91E00E941102D091D0
:1004B000EF01D13208F092C00E94FD006B017C0177
:1004C0008091BC01811165C082E08093BC0181E014
:1004D0008093BE018FEF8093BB011092E001D09317
:1004E000DF01E1E3F1E0AFEBB1E080E0D81385C0DC
:1004F0001092E1018091E101CC0FC82BC093E10182
:100500008091BD01813009F07CC01092BD010E9434
:10051000FD006B017C018091E1018093BB00809123
:10052000730190917401A0917501B0917601892BAE
:100530008A2B8B2B99F00E94FD0000917301109182
:10054000740120917501309176016C197D098E0935
:100550009F090617170728073907E0F18091BC00AB
:1005600083FDD9CF85EC8093BC000E94FD006B0118
:100570007C018091BC01823009F445C08091BB01AF
:100580008F3F61F18091BB01803241F18091BB01CD
:1005900025C08091730190917401A0917501B09173
:1005A0007601892B8A2B8B2B09F48ACF0E94FD00C0
:1005B00000917301109174012091750130917601C1
:1005C0006C197D098E099F09061717072807390737
:1005D00008F076CF809172010E9499011092F0018B
:1005E0001092EF0110925101DF91CF911F910F9165
:1005F000FF90EF90DF90CF90089591919D938F5F42
:1006000075CF85EEB0CF8091730190917401A09168
:100610007501B0917601892B8A2B8B2B09F4A9CF18
:100620000E94FD00009173011091740120917501E9
:10063000309176016C197D098E099F0906171707FD
:100640002807390708F095CFC5CF089590E080E0DE
:10065000089585ED8093BC008091730190917401A1
:10066000A0917501B09176010796A11DB11D23E0FF
:10067000B695A795979587952A95D1F72091BC00B7
:1006800024FD03C01092BC01089540917301509164
:1006900074016091750170917601452B462B472BB3
:1006A00069F30097A105B10541F025E32A95F1F71B
:1006B00000000197A109B109E1CF809172010C946A
:1006C00099010F931F93CF93DF93EC01042F698758
:1006D00011E01F838E81880F9D819460892B28856E
:1006E00098E0299F90011124822B607F682BCE0116
:1006F0000E9440021F826E81660F888528E0829FDB
:10070000C0011124682B8D81682B8985807F682B1F
:10071000CE010E944002011131C08FE890E00197A4
:10072000F1F71F838D8184606E81660F682B888549
:1007300028E0829FC0011124682B898520E1829FD7
:10074000C0011124682BCE010E9440021F826E81DD
:10075000660F888528E0829FC0011124682B8D8157
:10076000682B898520E1829FC0011124682BCE016E
:10077000DF91CF911F910F910C944002DF91CF91A7
:100780001F910F91089521E0FC012583168240E01E
:100790000E9461038FE990E00197F1F781E090E01A
:1007A00008951F920F920FB60F9211242F933F932B
:1007B0008F939F93AF93BF938091E3019091E40156
:1007C000A091E501B091E6013091E20123E0230F11
:1007D0002D3758F50196A11DB11D2093E20180939C
:1007E000E3019093E401A093E501B093E6018091C9
:1007F000E7019091E801A091E901B091EA01019629
:10080000A11DB11D8093E7019093E801A093E90138
:10081000B093EA01BF91AF919F918F913F912F913A
:100820000F900FBE0F901F90189526E8230F029689
:10083000A11DB11DD2CF1F920F920FB60F9211249E
:100840002F933F934F935F936F937F938F939F93D8
:10085000AF93BF93EF93FF938091B900887F803669
:1008600009F44AC0F0F5883209F4A7C018F58031C0
:1008700009F49BC0B8F4882309F4F9C0883009F45E
:1008800094C0FF91EF91BF91AF919F918F917F9114
:100890006F915F914F913F912F910F900FBE0F90ED
:1008A0001F901895883109F488C0803251F78093E1
:1008B000BB0114C0803409F49DC040F48033B9F307
:1008C0008833F9F68093BB0185ECB0C0803509F41C
:1008D00085C0883509F496C0883499F60E942903AA
:1008E000D0CF883909F48CC038F5883729F050F416
:1008F000883611F0803729F683E08093BC0110928E
:10090000BA0157C0883809F47BC0803919F08038A3
:1009100009F0B7CF8091BA01803208F071C0E09140
:10092000BA0181E08E0F8093BA018091BB00F0E0A4
:10093000E656FE4F80833DC0803B39F0E0F4803ABC
:1009400009F479C0883A09F09CCF84E08093BC0117
:100950001092990110929801E091ED01F091EE0151
:1009600009958091980181110FC081E080939801D1
:100970001092780109C0803C09F4A6CF883C09F4A4
:10098000A3CF883B09F07DCFE091990181E08E0FE4
:1009900080939901F0E0E858FE4F80818093BB007E
:1009A000909199018091980129C08091E1018093F3
:1009B000BB0085EC8093BC0064CF9091E0018091F6
:1009C000DF01981758F5E091E00181E08E0F8093E8
:1009D000E001F0E0E154FE4F8081E9CFE091E001D9
:1009E00081E08E0F8093E0018091BB00F0E0E15444
:1009F000FE4F80839091E0018091DF019817C8F24B
:100A000085E8D8CFE091E00181E08E0F8093E0018E
:100A10008091BB00F0E0E154FE4F80838091BE01E5
:100A200081115CCF81E08093BD0184EA8093BC009A
:100A30001092BC0126CF85EC8093BC001092BC01C3
:100A40008091BA01803230F4E091BA01F0E0E656CC
:100A5000FE4F10826091BA0170E0E091EB01F091DD
:100A6000EC018AE991E009951092BA010ACF10923F
:100A7000BB0134CFE3EFF1E01382128288EE93E002
:100A8000A0E0B0E084839583A683B78384E091E0FF
:100A900091838083EFEFF1E01382128286E191E08F
:100AA00091838083158216821782108611861286A2
:100AB000138680E284830895789484B5826084BD2F
:100AC00084B5816084BD85B5826085BD85B5816052
:100AD00085BD80916E00816080936E0010928100D0
:100AE000809181008260809381008091810081608B
:100AF000809381008091800081608093800080914C
:100B0000B10084608093B1008091B00081608093D7
:100B1000B00080917A00846080937A0080917A009E
:100B2000826080937A0080917A00816080937A005D
:100B300080917A00806880937A001092C1001092B0
:100B4000F2011092F1011092F0011092EF010E9457
:100B50007B0182E890E09093EE018093ED0183E8C1
:100B600090E09093EC018093EB0160E08FEF91E0D7
:100B70000E94400262E370E080E090E00E94220167
:100B8000109204021092050241E060E38FEF91E0C1
:100B90000E9461038BE991E40197F1F741E060E382
:100BA0008FEF91E00E94610383E592E00197F1F7F6
:100BB00041E060E38FEF91E00E946103CFE8D0E075
:100BC000CE010197F1F741E060E28FEF91E00E94E2
:100BD0006103CE010197F1F740E068E28FEF91E009
:100BE0000E946103CE010197F1F710920402109266
:100BF000050260910902862F8460809309026C606F
:100C000040E08FEF91E00E946103CE010197F1F780
:100C1000109204021092050240E061E08FEF91E033
:100C20000E9461038BEF98E10197F1F710920402A3
:100C30001092050260910A02862F826080930A0258
:100C4000666040E08FEF91E00E9461032197F1F729
:100C500081E08093070268E08FEF91E00E944002FC
:100C60008FE8E82EF12C11E09BEFC92E98E1D92EE8
:100C700020E0A22E20E0B22E4AE050E06EE171E0CA
:100C80008FEF91E00E9484001092040210920502FE
:100C900040E065EC8FEF91E00E946103C70101978E
:100CA000F1F746E050E069E271E08FEF91E00E94D9
:100CB000840064EF71E080E090E00E942201C5E0D2
:100CC000D0E01093070268E08FEF91E00E944002AD
:100CD00062E370E080E090E00E942201109207023F
:100CE00060E08FEF91E00E94400262E370E080E0FC
:100CF00090E00E942201219721F71093070268E0FB
:100D00008FEF91E00E9440021092040210920502BF
:100D100040E061E08FEF91E00E946103C60101971E
:100D2000F1F764EF71E080E090E00E942201A114ED
:100D3000B10409F4A1CF0E9400009ECFEE0FFF1F67
:100D40000590F491E02D0994F894FFCF0000000085
:100D50001102E4012603BA01DD01CA01BB01000052
:100D60000000C30384002603250320202020204800
:0C0D7000656C6C6F00576F726C642100A2
:107800000C94343C0C94513C0C94513C0C94513CE1
:107810000C94513C0C94513C0C94513C0C94513CB4
:107820000C94513C0C94513C0C94513C0C94513CA4
:107830000C94513C0C94513C0C94513C0C94513C94
:107840000C94513C0C94513C0C94513C0C94513C84
:107850000C94513C0C94513C0C94513C0C94513C74
:107860000C94513C0C94513C11241FBECFEFD8E036
:10787000DEBFCDBF11E0A0E0B1E0ECE9FFE702C060
:1078800005900D92A230B107D9F712E0A2E0B1E065
:1078900001C01D92AD30B107E1F70E942D3D0C945F
:1078A000CC3F0C94003C982F959595959595959582
:1078B000905D8F708A307CF0282F295A8091C0000B
:1078C00085FFFCCF9093C6008091C00085FFFCCF60
:1078D0002093C6000895282F205DF0CF982F809127
:1078E000C00085FFFCCF9093C6000895EF92FF92F1
:1078F0000F931F93EE24FF2487018091C00087FD22
:1079000017C00894E11CF11C011D111D81E4E8164B
:1079100082E4F8068FE0080780E0180770F3E09132
:107920000401F091050109958091C00087FFE9CF1E
:107930008091C6001F910F91FF90EF9008950E94D3
:10794000763C982F8091C00085FFFCCF9093C600B5
:1079500091362CF490330CF09053892F089597555D
:10796000892F08951F930E949F3C182F0E949F3CCF
:107970001295107F810F1F9108951F93182F882350
:1079800021F00E94763C1150E1F71F9108951F935A
:10799000182F0E94763C803249F0809103018F5F5E
:1079A000809303018530C1F01F9108958091C0003C
:1079B00085FFFCCF84E18093C6008091C00085FFE5
:1079C000FCCF1093C6008091C00085FFFCCF80E102
:1079D0008093C6001F910895E0910401F091050184
:1079E00009951F9108950E94763C803241F0809164
:1079F00003018F5F80930301853081F008958091AA
:107A0000C00085FFFCCF84E18093C6008091C00058
:107A100085FFFCCF80E18093C6000895E0910401CA
:107A2000F09105010995089540E951E08823A1F0FE
:107A30002D9A28EE33E0FA013197F1F721503040CA
:107A4000D1F72D9828EE33E0FA013197F1F7215064
:107A50003040D1F7815061F708953F924F925F9285
:107A60006F927F928F929F92AF92BF92CF92DF924E
:107A7000EF92FF920F931F93CF93DF93000080E16B
:107A80008093C4001092C50088E18093C10086E015
:107A90008093C2005098589A259A81E00E94143D24
:107AA00024E1F22E9EE1E92E85E9D82E0FE0C02ECA
:107AB00010E1B12EAA24A394B1E49B2EA6E58A2E50
:107AC000F2E57F2EE0E26E2E79E4572E63E5462E36
:107AD00050E5352E0E94763C8033B1F18133B9F107
:107AE000803409F46FC0813409F476C0823409F41B
:107AF00085C0853409F488C0803531F1823521F1A3
:107B0000813511F1853509F485C0863509F48DC0BC
:107B1000843609F496C0843709F403C1853709F423
:107B200072C1863709F466C0809103018F5F80932C
:107B30000301853079F6E0910401F0910501099582
:107B40000E94763C803351F60E94F33CC3CF0E94E2
:107B5000763C803249F78091C00085FFFCCFF092DF
:107B6000C6008091C00085FFFCCF9092C600809136
:107B7000C00085FFFCCF8092C6008091C00085FFC9
:107B8000FCCF7092C6008091C00085FFFCCF609250
:107B9000C6008091C00085FFFCCF5092C600809146
:107BA000C00085FFFCCF4092C6008091C00085FFD9
:107BB000FCCF3092C6008091C00085FFFCCFB09210
:107BC000C60088CF0E94763C863808F4BDCF0E945C
:107BD000763C0E94F33C7ECF0E94763C803809F4CC
:107BE0009CC0813809F40BC1823809F43CC1883942
:107BF00009F48FC080E00E94C73C6CCF84E10E94F2
:107C0000BD3C0E94F33C66CF85E00E94BD3C0E94D3
:107C1000F33C60CF0E94763C809306010E94763C44
:107C2000809307010E94F33C55CF0E94763C80333D
:107C300009F41DC183E00E94BD3C80E00E94C73C66
:107C400049CF0E94763C809309020E94763C809343
:107C5000080280910C028E7F80930C020E94763C79
:107C6000853409F415C18091080290910902892B8D
:107C700089F000E010E00E94763CF801E85FFE4FDA
:107C800080830F5F1F4F80910802909109020817AF
:107C9000190788F30E94763C803209F045CF809125
:107CA0000C0280FF01C16091060170910701660F0F
:107CB000771F7093070160930601A0910802B091AD
:107CC00009021097C9F0E8E0F1E09B01AD014E0F09
:107CD0005F1FF999FECF32BD21BD819180BDFA9A17
:107CE000F99A2F5F3F4FE417F50799F76A0F7B1F4B
:107CF00070930701609306018091C00085FFFCCF5F
:107D0000F092C6008091C00085FFFCCFB092C60003
:107D1000E1CE83E00E94C73CDDCE82E00E94C73CFA
:107D2000D9CE0E94763C809309020E94763C8093D3
:107D300008028091060190910701880F991F909386
:107D40000701809306010E94763C853409F4A6C0A1
:107D500080910C028E7F80930C020E94763C8032D0
:107D600009F0B8CE8091C00085FFFCCFF092C6002C
:107D7000609108027091090261157105B9F140E046
:107D800050E080910C02A82FA170B82FB27011C0E2
:107D9000BB2309F45CC0E0910601F0910701319624
:107DA000F0930701E09306014F5F5F4F46175707B7
:107DB000E8F4AA2369F3F999FECF209106013091E6
:107DC000070132BD21BDF89A90B58091C00085FFB2
:107DD000FCCF9093C6002F5F3F4F30930701209355
:107DE00006014F5F5F4F4617570718F38091C00099
:107DF00085FDE5CE8091C00085FFF8CFE0CE81E023
:107E00000E94C73C67CE0E94763C803209F08CCE3F
:107E10008091C00085FFFCCFF092C6008091C00029
:107E200085FFFCCFE092C6008091C00085FFFCCFAB
:107E3000D092C6008091C00085FFFCCFC092C600E2
:107E40008091C00085FFFCCFB092C60043CEE09188
:107E50000601F091070194918091C00085FFFCCF4D
:107E60009093C6009CCF80E10E94C73C33CE0E9415
:107E7000763C0E94763C182F0E94763C112309F430
:107E800083C0113009F484C08FE00E94C73C22CE29
:107E900080910C02816080930C02E5CE80910C02EF
:107EA000816080930C0259CF809107018823880F4D
:107EB000880B8A2180930B02809106019091070123
:107EC000880F991F90930701809306018091080203
:107ED00080FF09C080910802909109020196909359
:107EE000090280930802F894F999FECF1127E091D6
:107EF0000601F0910701C8E0D1E08091080290915D
:107F00000902103091F40091570001700130D9F34B
:107F100003E000935700E89500915700017001308D
:107F2000D9F301E100935700E89509901990009169
:107F3000570001700130D9F301E000935700E89534
:107F40001395103498F011270091570001700130FB
:107F5000D9F305E000935700E895009157000170B0
:107F60000130D9F301E100935700E895329602976A
:107F700009F0C7CF103011F00296E5CF112480919F
:107F8000C00085FFB9CEBCCE8EE10E94C73CA2CD19
:0E7F900085E90E94C73C9ECDF894FFCF80008B
:00000001FF
